{
  "contractName": "TodoList",
  "abi": [
    {
      "constant": true,
      "inputs": [],
      "name": "taskCount",
      "outputs": [
        {
          "name": "",
          "type": "uint256"
        }
      ],
      "payable": false,
      "stateMutability": "view",
      "type": "function",
      "signature": "0xb6cb58a5"
    },
    {
      "constant": true,
      "inputs": [
        {
          "name": "",
          "type": "uint256"
        }
      ],
      "name": "todos",
      "outputs": [
        {
          "name": "taskName",
          "type": "string"
        },
        {
          "name": "isCompleted",
          "type": "bool"
        }
      ],
      "payable": false,
      "stateMutability": "view",
      "type": "function",
      "signature": "0xbc8bc2b4"
    },
    {
      "inputs": [],
      "payable": false,
      "stateMutability": "nonpayable",
      "type": "constructor",
      "signature": "constructor"
    },
    {
      "anonymous": false,
      "inputs": [
        {
          "indexed": false,
          "name": "task",
          "type": "string"
        },
        {
          "indexed": false,
          "name": "taskNumber",
          "type": "uint256"
        }
      ],
      "name": "TaskCreated",
      "type": "event",
      "signature": "0xed1d390c812a65783a09786b88b832ef75bb16882fbc56eeea9bf61a4c1a8ac7"
    },
    {
      "constant": false,
      "inputs": [
        {
          "name": "_taskName",
          "type": "string"
        }
      ],
      "name": "createTask",
      "outputs": [],
      "payable": false,
      "stateMutability": "nonpayable",
      "type": "function",
      "signature": "0x111002aa"
    }
  ],
  "bytecode": "0x608060405234801561001057600080fd5b5060408051908101604052806040805190810160405280600481526020017f746573740000000000000000000000000000000000000000000000000000000081525081526020016001151581525060016000808152602001908152602001600020600082015181600001908051906020019061008d9291906100be565b5060208201518160010160006101000a81548160ff0219169083151502179055509050506001600081905550610163565b828054600181600116156101000203166002900490600052602060002090601f016020900481019282601f106100ff57805160ff191683800117855561012d565b8280016001018555821561012d579182015b8281111561012c578251825591602001919060010190610111565b5b50905061013a919061013e565b5090565b61016091905b8082111561015c576000816000905550600101610144565b5090565b90565b6104d4806101726000396000f3fe608060405260043610610057576000357c0100000000000000000000000000000000000000000000000000000000900463ffffffff168063111002aa1461005c578063b6cb58a514610124578063bc8bc2b41461014f575b600080fd5b34801561006857600080fd5b506101226004803603602081101561007f57600080fd5b810190808035906020019064010000000081111561009c57600080fd5b8201836020820111156100ae57600080fd5b803590602001918460018302840111640100000000831117156100d057600080fd5b91908080601f016020809104026020016040519081016040528093929190818152602001838380828437600081840152601f19601f82011690508083019250505050505050919291929050505061020e565b005b34801561013057600080fd5b50610139610334565b6040518082815260200191505060405180910390f35b34801561015b57600080fd5b506101886004803603602081101561017257600080fd5b810190808035906020019092919050505061033a565b604051808060200183151515158152602001828103825284818151815260200191508051906020019080838360005b838110156101d25780820151818401526020810190506101b7565b50505050905090810190601f1680156101ff5780820380516001836020036101000a031916815260200191505b50935050505060405180910390f35b604080519081016040528082815260200160001515815250600160008060008154809291906001019190505581526020019081526020016000206000820151816000019080519060200190610264929190610403565b5060208201518160010160006101000a81548160ff0219169083151502179055509050507fed1d390c812a65783a09786b88b832ef75bb16882fbc56eeea9bf61a4c1a8ac7816001600054036040518080602001838152602001828103825284818151815260200191508051906020019080838360005b838110156102f65780820151818401526020810190506102db565b50505050905090810190601f1680156103235780820380516001836020036101000a031916815260200191505b50935050505060405180910390a150565b60005481565b6001602052806000526040600020600091509050806000018054600181600116156101000203166002900480601f0160208091040260200160405190810160405280929190818152602001828054600181600116156101000203166002900480156103e65780601f106103bb576101008083540402835291602001916103e6565b820191906000526020600020905b8154815290600101906020018083116103c957829003601f168201915b5050505050908060010160009054906101000a900460ff16905082565b828054600181600116156101000203166002900490600052602060002090601f016020900481019282601f1061044457805160ff1916838001178555610472565b82800160010185558215610472579182015b82811115610471578251825591602001919060010190610456565b5b50905061047f9190610483565b5090565b6104a591905b808211156104a1576000816000905550600101610489565b5090565b9056fea165627a7a723058202bbe0a64b8fb5f9e0c487f63ec27c6b98fbae90e7833f215413af7b4a8562caa0029",
  "source": "pragma solidity ^0.5.0;\n\ncontract TodoList {\n    uint256 public taskCount;\n\n    struct Task {\n        string taskName;\n        bool isCompleted;\n    }\n\n    mapping(uint256 => Task) public todos;\n\n    event TaskCreated(string task, uint256 taskNumber);\n\n    constructor() public {\n        todos[0] = Task(\"test\", true);\n        taskCount = 1;\n    }\n\n    function createTask(string memory _taskName) public {\n        todos[taskCount++] = Task(_taskName, false);\n\n        emit TaskCreated(_taskName, taskCount - 1);\n    }\n}\n",
  "sourcePath": "/home/keshav/Documents/workspace/Flutter/todolist/contracts/TodoList.sol",
  "compiler": {
    "name": "solc",
    "version": "0.5.0+commit.1d4f565a.Emscripten.clang"
  },
  "schemaVersion": "3.0.1",
  "updatedAt": "2020-06-16T10:56:58.866Z",
  "devdoc": {
    "methods": {}
  },
  "userdoc": {
    "methods": {}
  }
}